{"abi":[{"type":"function","name":"getSpotPrice","inputs":[{"name":"","type":"address","internalType":"address"},{"name":"","type":"address","internalType":"address"},{"name":"","type":"address","internalType":"address"}],"outputs":[{"name":"","type":"uint256","internalType":"uint256"}],"stateMutability":"nonpayable"},{"type":"function","name":"setPrice","inputs":[{"name":"_price","type":"uint256","internalType":"uint256"}],"outputs":[],"stateMutability":"nonpayable"}],"bytecode":{"object":"0x608060405234801561001057600080fd5b50610115806100206000396000f3fe6080604052348015600f57600080fd5b506004361060325760003560e01c806375075ad514603757806391b7f5ed14605e575b600080fd5b604c6042366004608b565b6000549392505050565b60405190815260200160405180910390f35b606e606936600460c7565b600055565b005b80356001600160a01b0381168114608657600080fd5b919050565b600080600060608486031215609f57600080fd5b60a6846070565b925060b2602085016070565b915060be604085016070565b90509250925092565b60006020828403121560d857600080fd5b503591905056fea2646970667358221220531a5e7ae0f35da0f00e07836fad13893c6a8291e0dd2864f22b1734ff4be51164736f6c63430008170033","linkReferences":{}},"methodIdentifiers":{"getSpotPrice(address,address,address)":"75075ad5","setPrice(uint256)":"91b7f5ed"},"id":21}