{"abi":[{"type":"constructor","inputs":[{"name":"destinationToken_","type":"address","internalType":"address"},{"name":"swapRouter_","type":"address","internalType":"address"}],"stateMutability":"nonpayable"},{"type":"function","name":"ETH","inputs":[],"outputs":[{"name":"","type":"address","internalType":"address"}],"stateMutability":"view"},{"type":"function","name":"depositFunds","inputs":[{"name":"tokens","type":"address[]","internalType":"address[]"},{"name":"amounts","type":"uint256[]","internalType":"uint256[]"}],"outputs":[],"stateMutability":"payable"},{"type":"function","name":"destinationToken","inputs":[],"outputs":[{"name":"","type":"address","internalType":"address"}],"stateMutability":"view"},{"type":"function","name":"swapRouter","inputs":[],"outputs":[{"name":"","type":"address","internalType":"address"}],"stateMutability":"view"},{"type":"function","name":"transmute","inputs":[{"name":"users","type":"address[]","internalType":"address[]"},{"name":"token","type":"address","internalType":"address"},{"name":"amount","type":"uint256","internalType":"uint256"},{"name":"swapData","type":"bytes","internalType":"bytes"}],"outputs":[],"stateMutability":"nonpayable"},{"type":"function","name":"userBalances","inputs":[{"name":"","type":"address","internalType":"address"},{"name":"","type":"address","internalType":"address"}],"outputs":[{"name":"","type":"uint256","internalType":"uint256"}],"stateMutability":"view"},{"type":"event","name":"FundsDeposited","inputs":[{"name":"user","type":"address","indexed":false,"internalType":"address"},{"name":"tokens","type":"address[]","indexed":false,"internalType":"address[]"},{"name":"amounts","type":"uint256[]","indexed":false,"internalType":"uint256[]"}],"anonymous":false},{"type":"event","name":"UserAmountTransmuted","inputs":[{"name":"user","type":"address","indexed":false,"internalType":"address"},{"name":"originalToken","type":"address","indexed":false,"internalType":"address"},{"name":"originalAmount","type":"uint256","indexed":false,"internalType":"uint256"},{"name":"destAmount","type":"uint256","indexed":false,"internalType":"uint256"}],"anonymous":false},{"type":"error","name":"AddressEmptyCode","inputs":[{"name":"target","type":"address","internalType":"address"}]},{"type":"error","name":"AddressInsufficientBalance","inputs":[{"name":"account","type":"address","internalType":"address"}]},{"type":"error","name":"FailedInnerCall","inputs":[]},{"type":"error","name":"InsufficientEth","inputs":[]},{"type":"error","name":"InvalidAddress","inputs":[]},{"type":"error","name":"MismatchLength","inputs":[]},{"type":"error","name":"SafeERC20FailedOperation","inputs":[{"name":"token","type":"address","internalType":"address"}]}],"bytecode":{"object":"0x60c060405234801561001057600080fd5b5060405161102538038061102583398101604081905261002f916100b0565b6001600160a01b0382166100565760405163e6c4247b60e01b815260040160405180910390fd5b6001600160a01b03811661007d5760405163e6c4247b60e01b815260040160405180910390fd5b6001600160a01b0391821660a052166080526100e3565b80516001600160a01b03811681146100ab57600080fd5b919050565b600080604083850312156100c357600080fd5b6100cc83610094565b91506100da60208401610094565b90509250929050565b60805160a051610ef461013160003960008181608e015281816102a50152818161045f01526105b301526000818161014a0152818161033a015281816103a001526104100152610ef46000f3fe6080604052600436106100555760003560e01c80630a42ce1b1461005a5780630b4749491461007c57806311d71068146100cd5780638322fff2146100e0578063adb51980146100f5578063c31c9c0714610138575b600080fd5b34801561006657600080fd5b5061007a610075366004610bb3565b61016c565b005b34801561008857600080fd5b506100b07f000000000000000000000000000000000000000000000000000000000000000081565b6040516001600160a01b0390911681526020015b60405180910390f35b61007a6100db366004610c6c565b6105f7565b3480156100ec57600080fd5b506100b0600e81565b34801561010157600080fd5b5061012a610110366004610cd8565b600060208181529281526040808220909352908152205481565b6040519081526020016100c4565b34801561014457600080fd5b506100b07f000000000000000000000000000000000000000000000000000000000000000081565b846000808267ffffffffffffffff81111561018957610189610d0b565b6040519080825280602002602001820160405280156101b2578160200160208202803683370190505b50905060005b8381101561027c5760008a8a838181106101d4576101d4610d21565b90506020020160208101906101e99190610d37565b6001600160a01b03808216600090815260208181526040808320938e1683529290522054845191925090819085908590811061022757610227610d21565b6020026020010181815161023b9190610d68565b9052506102488186610d68565b6001600160a01b03928316600090815260208181526040808320958e168352949052928320929092555092506001016101b8565b508160000361028d575050506105ef565b6040516370a0823160e01b81523060048201526000907f00000000000000000000000000000000000000000000000000000000000000006001600160a01b0316906370a0823190602401602060405180830381865afa1580156102f4573d6000803e3d6000fd5b505050506040513d601f19601f820116820180604052508101906103189190610d7b565b90506001600160a01b038816600e146103cf5761035f6001600160a01b0389167f000000000000000000000000000000000000000000000000000000000000000089610743565b6103c986868080601f016020809104026020016040519081016040528093929190818152602001838380828437600092019190915250506001600160a01b037f000000000000000000000000000000000000000000000000000000000000000016929150506107d3565b5061043d565b61043b86868080601f016020809104026020016040519081016040528093929190818152602001838380828437600092019190915250506001600160a01b037f0000000000000000000000000000000000000000000000000000000000000000169291508a90506107ea565b505b6040516370a0823160e01b815230600482015260009082906001600160a01b037f000000000000000000000000000000000000000000000000000000000000000016906370a0823190602401602060405180830381865afa1580156104a6573d6000803e3d6000fd5b505050506040513d601f19601f820116820180604052508101906104ca9190610d7b565b6104d49190610d94565b905060005b858110156105e85760008c8c838181106104f5576104f5610d21565b905060200201602081019061050a9190610d37565b9050600085838151811061052057610520610d21565b6020026020010151905060008782866105399190610da7565b6105439190610dbe565b90507f27858b2ca9a7bf1679740df265a88d7570d2f7cf5344ab4dab032483acb03639838e848460405161059e94939291906001600160a01b0394851681529290931660208301526040820152606081019190915260800190565b60405180910390a16105da6001600160a01b037f000000000000000000000000000000000000000000000000000000000000000016848361088e565b5050508060010190506104d9565b5050505050505b505050505050565b828181146106185760405163684c62eb60e01b815260040160405180910390fd5b7f500410b91d368fb9813046cf8181967265c06c13fcc2949d027ceef810d25d9e338686868660405161064f959493929190610de0565b60405180910390a160005b818110156105ef57600086868381811061067657610676610d21565b905060200201602081019061068b9190610d37565b905060008585848181106106a1576106a1610d21565b905060200201359050600e6001600160a01b0316826001600160a01b0316146106de576106d96001600160a01b0383163330846108f2565b6106ff565b803410156106ff5760405163500d4efb60e11b815260040160405180910390fd5b336000908152602081815260408083206001600160a01b038616845290915281208054839290610730908490610d68565b90915550506001909201915061065a9050565b604051636eb1769f60e11b81523060048201526001600160a01b0383811660248301526000919085169063dd62ed3e90604401602060405180830381865afa158015610793573d6000803e3d6000fd5b505050506040513d601f19601f820116820180604052508101906107b79190610d7b565b90506107cd84846107c88585610d68565b61092b565b50505050565b60606107e1838360006107ea565b90505b92915050565b6060814710156108145760405163cd78605960e01b81523060048201526024015b60405180910390fd5b600080856001600160a01b031684866040516108309190610e6d565b60006040518083038185875af1925050503d806000811461086d576040519150601f19603f3d011682016040523d82523d6000602084013e610872565b606091505b50915091506108828683836109bb565b925050505b9392505050565b6040516001600160a01b038381166024830152604482018390526108ed91859182169063a9059cbb906064015b604051602081830303815290604052915060e01b6020820180516001600160e01b038381831617835250505050610a17565b505050565b6040516001600160a01b0384811660248301528381166044830152606482018390526107cd9186918216906323b872dd906084016108bb565b604080516001600160a01b038416602482015260448082018490528251808303909101815260649091019091526020810180516001600160e01b031663095ea7b360e01b17905261097c8482610a7a565b6107cd576040516001600160a01b038481166024830152600060448301526109b191869182169063095ea7b3906064016108bb565b6107cd8482610a17565b6060826109d0576109cb82610b22565b610887565b81511580156109e757506001600160a01b0384163b155b15610a1057604051639996b31560e01b81526001600160a01b038516600482015260240161080b565b5080610887565b6000610a2c6001600160a01b038416836107d3565b90508051600014158015610a51575080806020019051810190610a4f9190610e9c565b155b156108ed57604051635274afe760e01b81526001600160a01b038416600482015260240161080b565b6000806000846001600160a01b031684604051610a979190610e6d565b6000604051808303816000865af19150503d8060008114610ad4576040519150601f19603f3d011682016040523d82523d6000602084013e610ad9565b606091505b5091509150818015610b03575080511580610b03575080806020019051810190610b039190610e9c565b8015610b1957506000856001600160a01b03163b115b95945050505050565b805115610b325780518082602001fd5b604051630a12f52160e11b815260040160405180910390fd5b60008083601f840112610b5d57600080fd5b50813567ffffffffffffffff811115610b7557600080fd5b6020830191508360208260051b8501011115610b9057600080fd5b9250929050565b80356001600160a01b0381168114610bae57600080fd5b919050565b60008060008060008060808789031215610bcc57600080fd5b863567ffffffffffffffff80821115610be457600080fd5b610bf08a838b01610b4b565b9098509650869150610c0460208a01610b97565b9550604089013594506060890135915080821115610c2157600080fd5b818901915089601f830112610c3557600080fd5b813581811115610c4457600080fd5b8a6020828501011115610c5657600080fd5b6020830194508093505050509295509295509295565b60008060008060408587031215610c8257600080fd5b843567ffffffffffffffff80821115610c9a57600080fd5b610ca688838901610b4b565b90965094506020870135915080821115610cbf57600080fd5b50610ccc87828801610b4b565b95989497509550505050565b60008060408385031215610ceb57600080fd5b610cf483610b97565b9150610d0260208401610b97565b90509250929050565b634e487b7160e01b600052604160045260246000fd5b634e487b7160e01b600052603260045260246000fd5b600060208284031215610d4957600080fd5b6107e182610b97565b634e487b7160e01b600052601160045260246000fd5b808201808211156107e4576107e4610d52565b600060208284031215610d8d57600080fd5b5051919050565b818103818111156107e4576107e4610d52565b80820281158282048414176107e4576107e4610d52565b600082610ddb57634e487b7160e01b600052601260045260246000fd5b500490565b6001600160a01b03868116825260606020808401829052908301869052600091879160808501845b89811015610e2d5783610e1a86610b97565b1682529382019390820190600101610e08565b5085810360408701528681526001600160fb1b03871115610e4d57600080fd5b8660051b9350838860208301379092016020019998505050505050505050565b6000825160005b81811015610e8e5760208186018101518583015201610e74565b506000920191825250919050565b600060208284031215610eae57600080fd5b8151801515811461088757600080fdfea26469706673582212207668500e2c5554e4a5c3066810dc4d3fc1bd5a15b81012d1a8212276c439b3fa64736f6c63430008170033","linkReferences":{}},"methodIdentifiers":{"ETH()":"8322fff2","depositFunds(address[],uint256[])":"11d71068","destinationToken()":"0b474949","swapRouter()":"c31c9c07","transmute(address[],address,uint256,bytes)":"0a42ce1b","userBalances(address,address)":"adb51980"},"id":29}